{
  "_format": "hh-sol-artifact-1",
  "contractName": "DefilordLendingPool",
  "sourceName": "contracts/DefilordLendingPool.sol",
  "abi": [
    {
      "inputs": [
        {
          "internalType": "address",
          "name": "_usdt",
          "type": "address"
        }
      ],
      "stateMutability": "nonpayable",
      "type": "constructor"
    },
    {
      "anonymous": false,
      "inputs": [
        {
          "indexed": false,
          "internalType": "uint256",
          "name": "newAPY",
          "type": "uint256"
        }
      ],
      "name": "APYChanged",
      "type": "event"
    },
    {
      "anonymous": false,
      "inputs": [
        {
          "indexed": false,
          "internalType": "uint256",
          "name": "newCap",
          "type": "uint256"
        }
      ],
      "name": "CapUpdated",
      "type": "event"
    },
    {
      "anonymous": false,
      "inputs": [
        {
          "indexed": true,
          "internalType": "address",
          "name": "user",
          "type": "address"
        },
        {
          "indexed": false,
          "internalType": "uint256",
          "name": "amount",
          "type": "uint256"
        }
      ],
      "name": "Deposited",
      "type": "event"
    },
    {
      "anonymous": false,
      "inputs": [
        {
          "indexed": false,
          "internalType": "address",
          "name": "vault",
          "type": "address"
        },
        {
          "indexed": false,
          "internalType": "uint256",
          "name": "amount",
          "type": "uint256"
        }
      ],
      "name": "FundsAllocated",
      "type": "event"
    },
    {
      "anonymous": false,
      "inputs": [
        {
          "indexed": true,
          "internalType": "address",
          "name": "previousOwner",
          "type": "address"
        },
        {
          "indexed": true,
          "internalType": "address",
          "name": "newOwner",
          "type": "address"
        }
      ],
      "name": "OwnershipTransferred",
      "type": "event"
    },
    {
      "anonymous": false,
      "inputs": [
        {
          "indexed": false,
          "internalType": "address",
          "name": "account",
          "type": "address"
        }
      ],
      "name": "Paused",
      "type": "event"
    },
    {
      "anonymous": false,
      "inputs": [
        {
          "indexed": false,
          "internalType": "address",
          "name": "account",
          "type": "address"
        }
      ],
      "name": "Unpaused",
      "type": "event"
    },
    {
      "anonymous": false,
      "inputs": [
        {
          "indexed": true,
          "internalType": "address",
          "name": "user",
          "type": "address"
        },
        {
          "indexed": false,
          "internalType": "uint256",
          "name": "amount",
          "type": "uint256"
        },
        {
          "indexed": false,
          "internalType": "uint256",
          "name": "interest",
          "type": "uint256"
        }
      ],
      "name": "Withdrawn",
      "type": "event"
    },
    {
      "inputs": [],
      "name": "MAX_APY",
      "outputs": [
        {
          "internalType": "uint256",
          "name": "",
          "type": "uint256"
        }
      ],
      "stateMutability": "view",
      "type": "function"
    },
    {
      "inputs": [],
      "name": "MAX_USER_DEPOSIT",
      "outputs": [
        {
          "internalType": "uint256",
          "name": "",
          "type": "uint256"
        }
      ],
      "stateMutability": "view",
      "type": "function"
    },
    {
      "inputs": [],
      "name": "MIN_LOCKUP_DURATION",
      "outputs": [
        {
          "internalType": "uint256",
          "name": "",
          "type": "uint256"
        }
      ],
      "stateMutability": "view",
      "type": "function"
    },
    {
      "inputs": [
        {
          "internalType": "address",
          "name": "vault",
          "type": "address"
        },
        {
          "internalType": "uint256",
          "name": "amount",
          "type": "uint256"
        }
      ],
      "name": "allocateExcessToStrategy",
      "outputs": [],
      "stateMutability": "nonpayable",
      "type": "function"
    },
    {
      "inputs": [],
      "name": "allocatedFunds",
      "outputs": [
        {
          "internalType": "uint256",
          "name": "",
          "type": "uint256"
        }
      ],
      "stateMutability": "view",
      "type": "function"
    },
    {
      "inputs": [
        {
          "internalType": "uint256",
          "name": "amount",
          "type": "uint256"
        }
      ],
      "name": "deposit",
      "outputs": [],
      "stateMutability": "nonpayable",
      "type": "function"
    },
    {
      "inputs": [],
      "name": "depositCap",
      "outputs": [
        {
          "internalType": "uint256",
          "name": "",
          "type": "uint256"
        }
      ],
      "stateMutability": "view",
      "type": "function"
    },
    {
      "inputs": [
        {
          "internalType": "address",
          "name": "",
          "type": "address"
        },
        {
          "internalType": "uint256",
          "name": "",
          "type": "uint256"
        }
      ],
      "name": "deposits",
      "outputs": [
        {
          "internalType": "uint256",
          "name": "amount",
          "type": "uint256"
        },
        {
          "internalType": "uint256",
          "name": "depositTime",
          "type": "uint256"
        }
      ],
      "stateMutability": "view",
      "type": "function"
    },
    {
      "inputs": [],
      "name": "fixedAPY",
      "outputs": [
        {
          "internalType": "uint256",
          "name": "",
          "type": "uint256"
        }
      ],
      "stateMutability": "view",
      "type": "function"
    },
    {
      "inputs": [
        {
          "internalType": "address",
          "name": "user",
          "type": "address"
        }
      ],
      "name": "getUserDeposits",
      "outputs": [
        {
          "components": [
            {
              "internalType": "uint256",
              "name": "amount",
              "type": "uint256"
            },
            {
              "internalType": "uint256",
              "name": "depositTime",
              "type": "uint256"
            }
          ],
          "internalType": "struct DefilordLendingPool.DepositInfo[]",
          "name": "",
          "type": "tuple[]"
        }
      ],
      "stateMutability": "view",
      "type": "function"
    },
    {
      "inputs": [
        {
          "internalType": "address",
          "name": "user",
          "type": "address"
        }
      ],
      "name": "getUserTotalBalance",
      "outputs": [
        {
          "internalType": "uint256",
          "name": "principal",
          "type": "uint256"
        },
        {
          "internalType": "uint256",
          "name": "interest",
          "type": "uint256"
        }
      ],
      "stateMutability": "view",
      "type": "function"
    },
    {
      "inputs": [],
      "name": "owner",
      "outputs": [
        {
          "internalType": "address",
          "name": "",
          "type": "address"
        }
      ],
      "stateMutability": "view",
      "type": "function"
    },
    {
      "inputs": [],
      "name": "pause",
      "outputs": [],
      "stateMutability": "nonpayable",
      "type": "function"
    },
    {
      "inputs": [],
      "name": "paused",
      "outputs": [
        {
          "internalType": "bool",
          "name": "",
          "type": "bool"
        }
      ],
      "stateMutability": "view",
      "type": "function"
    },
    {
      "inputs": [],
      "name": "renounceOwnership",
      "outputs": [],
      "stateMutability": "nonpayable",
      "type": "function"
    },
    {
      "inputs": [
        {
          "internalType": "uint256",
          "name": "_apy",
          "type": "uint256"
        }
      ],
      "name": "setAPY",
      "outputs": [],
      "stateMutability": "nonpayable",
      "type": "function"
    },
    {
      "inputs": [
        {
          "internalType": "uint256",
          "name": "_cap",
          "type": "uint256"
        }
      ],
      "name": "setDepositCap",
      "outputs": [],
      "stateMutability": "nonpayable",
      "type": "function"
    },
    {
      "inputs": [],
      "name": "totalDeposits",
      "outputs": [
        {
          "internalType": "uint256",
          "name": "",
          "type": "uint256"
        }
      ],
      "stateMutability": "view",
      "type": "function"
    },
    {
      "inputs": [
        {
          "internalType": "address",
          "name": "newOwner",
          "type": "address"
        }
      ],
      "name": "transferOwnership",
      "outputs": [],
      "stateMutability": "nonpayable",
      "type": "function"
    },
    {
      "inputs": [],
      "name": "unpause",
      "outputs": [],
      "stateMutability": "nonpayable",
      "type": "function"
    },
    {
      "inputs": [],
      "name": "usdt",
      "outputs": [
        {
          "internalType": "contract IERC20",
          "name": "",
          "type": "address"
        }
      ],
      "stateMutability": "view",
      "type": "function"
    },
    {
      "inputs": [
        {
          "internalType": "address",
          "name": "",
          "type": "address"
        }
      ],
      "name": "userTotalDeposited",
      "outputs": [
        {
          "internalType": "uint256",
          "name": "",
          "type": "uint256"
        }
      ],
      "stateMutability": "view",
      "type": "function"
    },
    {
      "inputs": [],
      "name": "withdrawAll",
      "outputs": [],
      "stateMutability": "nonpayable",
      "type": "function"
    }
  ],
  "bytecode": "0x60a06040526101f460025564e8d4a510006004553480156200002057600080fd5b50604051620024593803806200245983398181016040528101906200004691906200026b565b60016000819055506000600160006101000a81548160ff021916908315150217905550620000896200007d6200013660201b60201c565b6200013e60201b60201c565b600073ffffffffffffffffffffffffffffffffffffffff168173ffffffffffffffffffffffffffffffffffffffff1603620000fb576040517f08c379a0000000000000000000000000000000000000000000000000000000008152600401620000f290620002fe565b60405180910390fd5b8073ffffffffffffffffffffffffffffffffffffffff1660808173ffffffffffffffffffffffffffffffffffffffff16815250505062000320565b600033905090565b600060018054906101000a900473ffffffffffffffffffffffffffffffffffffffff169050816001806101000a81548173ffffffffffffffffffffffffffffffffffffffff021916908373ffffffffffffffffffffffffffffffffffffffff1602179055508173ffffffffffffffffffffffffffffffffffffffff168173ffffffffffffffffffffffffffffffffffffffff167f8be0079c531659141344cd1fd0a4f28419497f9722a3daafe3b4186f6b6457e060405160405180910390a35050565b600080fd5b600073ffffffffffffffffffffffffffffffffffffffff82169050919050565b6000620002338262000206565b9050919050565b620002458162000226565b81146200025157600080fd5b50565b60008151905062000265816200023a565b92915050565b60006020828403121562000284576200028362000201565b5b6000620002948482850162000254565b91505092915050565b600082825260208201905092915050565b7f496e76616c696420555344542061646472657373000000000000000000000000600082015250565b6000620002e66014836200029d565b9150620002f382620002ae565b602082019050919050565b600060208201905081810360008301526200031981620002d7565b9050919050565b60805161210862000351600039600081816105360152818161092501528181610c2a0152610f2c01526121086000f3fe608060405234801561001057600080fd5b506004361061014d5760003560e01c80638456cb59116100c3578063d4b6bfc01161007c578063d4b6bfc014610331578063d4cc54e41461034f578063d6d681771461036d578063db439f201461039e578063dbd5edc7146103ba578063f2fde38b146103d85761014d565b80638456cb5914610297578063853828b6146102a157806386651203146102ab5780638da5cb5b146102c7578063aa80e8a2146102e5578063b6b55f25146103155761014d565b806348c9eaaf1161011557806348c9eaaf146101e45780635c975abb1461020257806368e9751314610220578063715018a61461023e5780637923076c146102485780637d882097146102795761014d565b806324f45e67146101525780632a5bf6d21461016e5780632f48ab7d1461019e5780633d92f4e2146101bc5780633f4ba83a146101da575b600080fd5b61016c600480360381019061016791906114aa565b6103f4565b005b61018860048036038101906101839190611535565b610482565b604051610195919061164f565b60405180910390f35b6101a6610534565b6040516101b391906116d0565b60405180910390f35b6101c4610558565b6040516101d191906116fa565b60405180910390f35b6101e261055e565b005b6101ec610570565b6040516101f991906116fa565b60405180910390f35b61020a610576565b6040516102179190611730565b60405180910390f35b61022861058d565b60405161023591906116fa565b60405180910390f35b610246610594565b005b610262600480360381019061025d9190611535565b6105a8565b60405161027092919061174b565b60405180910390f35b6102816106da565b60405161028e91906116fa565b60405180910390f35b61029f6106e0565b005b6102a96106f2565b005b6102c560048036038101906102c091906114aa565b610a68565b005b6102cf610ab1565b6040516102dc9190611783565b60405180910390f35b6102ff60048036038101906102fa9190611535565b610ad9565b60405161030c91906116fa565b60405180910390f35b61032f600480360381019061032a91906114aa565b610af1565b005b610339610e62565b60405161034691906116fa565b60405180910390f35b610357610e6b565b60405161036491906116fa565b60405180910390f35b6103876004803603810190610382919061179e565b610e71565b60405161039592919061174b565b60405180910390f35b6103b860048036038101906103b3919061179e565b610eb2565b005b6103c2611045565b6040516103cf91906116fa565b60405180910390f35b6103f260048036038101906103ed9190611535565b61104b565b005b6103fc6110ce565b6107d0811115610441576040517f08c379a00000000000000000000000000000000000000000000000000000000081526004016104389061183b565b60405180910390fd5b806002819055507ffe0dc6926c703f5cea6a6a7bee3d6bede2f43f0df28a572f2e5cdd1d7ba9e5608160405161047791906116fa565b60405180910390a150565b6060600660008373ffffffffffffffffffffffffffffffffffffffff1673ffffffffffffffffffffffffffffffffffffffff168152602001908152602001600020805480602002602001604051908101604052809291908181526020016000905b82821015610529578382906000526020600020906002020160405180604001604052908160008201548152602001600182015481525050815260200190600101906104e3565b505050509050919050565b7f000000000000000000000000000000000000000000000000000000000000000081565b6107d081565b6105666110ce565b61056e61114c565b565b60025481565b6000600160009054906101000a900460ff16905090565b62093a8081565b61059c6110ce565b6105a660006111af565b565b6000806000600660008573ffffffffffffffffffffffffffffffffffffffff1673ffffffffffffffffffffffffffffffffffffffff168152602001908152602001600020805480602002602001604051908101604052809291908181526020016000905b828210156106525783829060005260206000209060020201604051806040016040529081600082015481526020016001820154815250508152602001906001019061060c565b50505050905060005b81518110156106d3578181815181106106775761067661185b565b5b6020026020010151600001518461068e91906118b9565b93506106b38282815181106106a6576106a561185b565b5b6020026020010151611272565b836106be91906118b9565b925080806106cb906118ed565b91505061065b565b5050915091565b60035481565b6106e86110ce565b6106f06112ce565b565b6106fa611330565b61070261137a565b6000600660003373ffffffffffffffffffffffffffffffffffffffff1673ffffffffffffffffffffffffffffffffffffffff1681526020019081526020016000209050600081805490501161078c576040517f08c379a000000000000000000000000000000000000000000000000000000000815260040161078390611981565b60405180910390fd5b60008060005b83805490508110156108795760008482815481106107b3576107b261185b565b5b906000526020600020906002020160405180604001604052908160008201548152602001600182015481525050905062093a8081602001516107f591906118b9565b421015610837576040517f08c379a000000000000000000000000000000000000000000000000000000000815260040161082e906119ed565b60405180910390fd5b600061084282611272565b905081600001518561085491906118b9565b9450808461086291906118b9565b935050508080610871906118ed565b915050610792565b50600660003373ffffffffffffffffffffffffffffffffffffffff1673ffffffffffffffffffffffffffffffffffffffff16815260200190815260200160002060006108c59190611424565b6000600760003373ffffffffffffffffffffffffffffffffffffffff1673ffffffffffffffffffffffffffffffffffffffff16815260200190815260200160002081905550816003600082825461091c9190611a0d565b925050819055507f000000000000000000000000000000000000000000000000000000000000000073ffffffffffffffffffffffffffffffffffffffff1663a9059cbb33838561096c91906118b9565b6040518363ffffffff1660e01b8152600401610989929190611a41565b6020604051808303816000875af11580156109a8573d6000803e3d6000fd5b505050506040513d601f19601f820116820180604052508101906109cc9190611a96565b610a0b576040517f08c379a0000000000000000000000000000000000000000000000000000000008152600401610a0290611b0f565b60405180910390fd5b3373ffffffffffffffffffffffffffffffffffffffff167f92ccf450a286a957af52509bc1c9939d1a6a481783e142e41e2499f0bb66ebc68383604051610a5392919061174b565b60405180910390a2505050610a666113c9565b565b610a706110ce565b806004819055507f3c8eb7c49d332f4c1e4d92a27cda93c31cc9452f7a408e0c6109fcddbc9946ea81604051610aa691906116fa565b60405180910390a150565b600060018054906101000a900473ffffffffffffffffffffffffffffffffffffffff16905090565b60076020528060005260406000206000915090505481565b610af9611330565b610b0161137a565b60008111610b44576040517f08c379a0000000000000000000000000000000000000000000000000000000008152600401610b3b90611b7b565b60405180910390fd5b60045481600354610b5591906118b9565b1115610b96576040517f08c379a0000000000000000000000000000000000000000000000000000000008152600401610b8d90611be7565b60405180910390fd5b64174876e80081600760003373ffffffffffffffffffffffffffffffffffffffff1673ffffffffffffffffffffffffffffffffffffffff16815260200190815260200160002054610be791906118b9565b1115610c28576040517f08c379a0000000000000000000000000000000000000000000000000000000008152600401610c1f90611c53565b60405180910390fd5b7f000000000000000000000000000000000000000000000000000000000000000073ffffffffffffffffffffffffffffffffffffffff166323b872dd3330846040518463ffffffff1660e01b8152600401610c8593929190611c73565b6020604051808303816000875af1158015610ca4573d6000803e3d6000fd5b505050506040513d601f19601f82011682018060405250810190610cc89190611a96565b610d07576040517f08c379a0000000000000000000000000000000000000000000000000000000008152600401610cfe90611cf6565b60405180910390fd5b600660003373ffffffffffffffffffffffffffffffffffffffff1673ffffffffffffffffffffffffffffffffffffffff16815260200190815260200160002060405180604001604052808381526020014281525090806001815401808255809150506001900390600052602060002090600202016000909190919091506000820151816000015560208201518160010155505080600760003373ffffffffffffffffffffffffffffffffffffffff1673ffffffffffffffffffffffffffffffffffffffff1681526020019081526020016000206000828254610de991906118b9565b925050819055508060036000828254610e0291906118b9565b925050819055503373ffffffffffffffffffffffffffffffffffffffff167f2da466a7b24304f47e87fa2e1e5a81b9831ce54fec19055ce277ca2f39ba42c482604051610e4f91906116fa565b60405180910390a2610e5f6113c9565b50565b64174876e80081565b60055481565b60066020528160005260406000208181548110610e8d57600080fd5b9060005260206000209060020201600091509150508060000154908060010154905082565b610eba6110ce565b6000600554600354610ecc9190611a0d565b905080821115610f11576040517f08c379a0000000000000000000000000000000000000000000000000000000008152600401610f0890611d62565b60405180910390fd5b8160056000828254610f2391906118b9565b925050819055507f000000000000000000000000000000000000000000000000000000000000000073ffffffffffffffffffffffffffffffffffffffff1663a9059cbb84846040518363ffffffff1660e01b8152600401610f85929190611a41565b6020604051808303816000875af1158015610fa4573d6000803e3d6000fd5b505050506040513d601f19601f82011682018060405250810190610fc89190611a96565b611007576040517f08c379a0000000000000000000000000000000000000000000000000000000008152600401610ffe90611dce565b60405180910390fd5b7f870f86672db2c7b197484fa0218e97fe38eb7c89fd39ed2c4c910734c66182f88383604051611038929190611a41565b60405180910390a1505050565b60045481565b6110536110ce565b600073ffffffffffffffffffffffffffffffffffffffff168173ffffffffffffffffffffffffffffffffffffffff16036110c2576040517f08c379a00000000000000000000000000000000000000000000000000000000081526004016110b990611e60565b60405180910390fd5b6110cb816111af565b50565b6110d66113d3565b73ffffffffffffffffffffffffffffffffffffffff166110f4610ab1565b73ffffffffffffffffffffffffffffffffffffffff161461114a576040517f08c379a000000000000000000000000000000000000000000000000000000000815260040161114190611ecc565b60405180910390fd5b565b6111546113db565b6000600160006101000a81548160ff0219169083151502179055507f5db9ee0a495bf2e6ff9c91a7834c1ba4fdd244a5e8aa4e537bd38aeae4b073aa6111986113d3565b6040516111a59190611783565b60405180910390a1565b600060018054906101000a900473ffffffffffffffffffffffffffffffffffffffff169050816001806101000a81548173ffffffffffffffffffffffffffffffffffffffff021916908373ffffffffffffffffffffffffffffffffffffffff1602179055508173ffffffffffffffffffffffffffffffffffffffff168173ffffffffffffffffffffffffffffffffffffffff167f8be0079c531659141344cd1fd0a4f28419497f9722a3daafe3b4186f6b6457e060405160405180910390a35050565b6000808260200151426112859190611a0d565b90506000612710600254856000015161129e9190611eec565b6112a89190611f5d565b90506301e1338082826112bb9190611eec565b6112c59190611f5d565b92505050919050565b6112d6611330565b60018060006101000a81548160ff0219169083151502179055507f62e78cea01bee320cd4e420270b5ea74000d11b0c9f74754ebdbfc544b05a2586113196113d3565b6040516113269190611783565b60405180910390a1565b611338610576565b15611378576040517f08c379a000000000000000000000000000000000000000000000000000000000815260040161136f90611fda565b60405180910390fd5b565b6002600054036113bf576040517f08c379a00000000000000000000000000000000000000000000000000000000081526004016113b690612046565b60405180910390fd5b6002600081905550565b6001600081905550565b600033905090565b6113e3610576565b611422576040517f08c379a0000000000000000000000000000000000000000000000000000000008152600401611419906120b2565b60405180910390fd5b565b50805460008255600202906000526020600020908101906114459190611448565b50565b5b8082111561146b57600080820160009055600182016000905550600201611449565b5090565b600080fd5b6000819050919050565b61148781611474565b811461149257600080fd5b50565b6000813590506114a48161147e565b92915050565b6000602082840312156114c0576114bf61146f565b5b60006114ce84828501611495565b91505092915050565b600073ffffffffffffffffffffffffffffffffffffffff82169050919050565b6000611502826114d7565b9050919050565b611512816114f7565b811461151d57600080fd5b50565b60008135905061152f81611509565b92915050565b60006020828403121561154b5761154a61146f565b5b600061155984828501611520565b91505092915050565b600081519050919050565b600082825260208201905092915050565b6000819050602082019050919050565b61159781611474565b82525050565b6040820160008201516115b3600085018261158e565b5060208201516115c6602085018261158e565b50505050565b60006115d8838361159d565b60408301905092915050565b6000602082019050919050565b60006115fc82611562565b611606818561156d565b93506116118361157e565b8060005b8381101561164257815161162988826115cc565b9750611634836115e4565b925050600181019050611615565b5085935050505092915050565b6000602082019050818103600083015261166981846115f1565b905092915050565b6000819050919050565b600061169661169161168c846114d7565b611671565b6114d7565b9050919050565b60006116a88261167b565b9050919050565b60006116ba8261169d565b9050919050565b6116ca816116af565b82525050565b60006020820190506116e560008301846116c1565b92915050565b6116f481611474565b82525050565b600060208201905061170f60008301846116eb565b92915050565b60008115159050919050565b61172a81611715565b82525050565b60006020820190506117456000830184611721565b92915050565b600060408201905061176060008301856116eb565b61176d60208301846116eb565b9392505050565b61177d816114f7565b82525050565b60006020820190506117986000830184611774565b92915050565b600080604083850312156117b5576117b461146f565b5b60006117c385828601611520565b92505060206117d485828601611495565b9150509250929050565b600082825260208201905092915050565b7f41505920746f6f20686967680000000000000000000000000000000000000000600082015250565b6000611825600c836117de565b9150611830826117ef565b602082019050919050565b6000602082019050818103600083015261185481611818565b9050919050565b7f4e487b7100000000000000000000000000000000000000000000000000000000600052603260045260246000fd5b7f4e487b7100000000000000000000000000000000000000000000000000000000600052601160045260246000fd5b60006118c482611474565b91506118cf83611474565b92508282019050808211156118e7576118e661188a565b5b92915050565b60006118f882611474565b91507fffffffffffffffffffffffffffffffffffffffffffffffffffffffffffffffff820361192a5761192961188a565b5b600182019050919050565b7f4e6f206465706f73697473000000000000000000000000000000000000000000600082015250565b600061196b600b836117de565b915061197682611935565b602082019050919050565b6000602082019050818103600083015261199a8161195e565b9050919050565b7f4c6f636b65640000000000000000000000000000000000000000000000000000600082015250565b60006119d76006836117de565b91506119e2826119a1565b602082019050919050565b60006020820190508181036000830152611a06816119ca565b9050919050565b6000611a1882611474565b9150611a2383611474565b9250828203905081811115611a3b57611a3a61188a565b5b92915050565b6000604082019050611a566000830185611774565b611a6360208301846116eb565b9392505050565b611a7381611715565b8114611a7e57600080fd5b50565b600081519050611a9081611a6a565b92915050565b600060208284031215611aac57611aab61146f565b5b6000611aba84828501611a81565b91505092915050565b7f5769746864726177206661696c65640000000000000000000000000000000000600082015250565b6000611af9600f836117de565b9150611b0482611ac3565b602082019050919050565b60006020820190508181036000830152611b2881611aec565b9050919050565b7f5a65726f206465706f7369740000000000000000000000000000000000000000600082015250565b6000611b65600c836117de565b9150611b7082611b2f565b602082019050919050565b60006020820190508181036000830152611b9481611b58565b9050919050565b7f506f6f6c20636170207265616368656400000000000000000000000000000000600082015250565b6000611bd16010836117de565b9150611bdc82611b9b565b602082019050919050565b60006020820190508181036000830152611c0081611bc4565b9050919050565b7f5573657220636170206578636565646564000000000000000000000000000000600082015250565b6000611c3d6011836117de565b9150611c4882611c07565b602082019050919050565b60006020820190508181036000830152611c6c81611c30565b9050919050565b6000606082019050611c886000830186611774565b611c956020830185611774565b611ca260408301846116eb565b949350505050565b7f5472616e73666572206661696c65640000000000000000000000000000000000600082015250565b6000611ce0600f836117de565b9150611ceb82611caa565b602082019050919050565b60006020820190508181036000830152611d0f81611cd3565b9050919050565b7f4e6f7420656e6f75676820756e616c6c6f63617465642066756e647300000000600082015250565b6000611d4c601c836117de565b9150611d5782611d16565b602082019050919050565b60006020820190508181036000830152611d7b81611d3f565b9050919050565b7f5472616e7366657220746f207374726174656779206661696c65640000000000600082015250565b6000611db8601b836117de565b9150611dc382611d82565b602082019050919050565b60006020820190508181036000830152611de781611dab565b9050919050565b7f4f776e61626c653a206e6577206f776e657220697320746865207a65726f206160008201527f6464726573730000000000000000000000000000000000000000000000000000602082015250565b6000611e4a6026836117de565b9150611e5582611dee565b604082019050919050565b60006020820190508181036000830152611e7981611e3d565b9050919050565b7f4f776e61626c653a2063616c6c6572206973206e6f7420746865206f776e6572600082015250565b6000611eb66020836117de565b9150611ec182611e80565b602082019050919050565b60006020820190508181036000830152611ee581611ea9565b9050919050565b6000611ef782611474565b9150611f0283611474565b9250828202611f1081611474565b91508282048414831517611f2757611f2661188a565b5b5092915050565b7f4e487b7100000000000000000000000000000000000000000000000000000000600052601260045260246000fd5b6000611f6882611474565b9150611f7383611474565b925082611f8357611f82611f2e565b5b828204905092915050565b7f5061757361626c653a2070617573656400000000000000000000000000000000600082015250565b6000611fc46010836117de565b9150611fcf82611f8e565b602082019050919050565b60006020820190508181036000830152611ff381611fb7565b9050919050565b7f5265656e7472616e637947756172643a207265656e7472616e742063616c6c00600082015250565b6000612030601f836117de565b915061203b82611ffa565b602082019050919050565b6000602082019050818103600083015261205f81612023565b9050919050565b7f5061757361626c653a206e6f7420706175736564000000000000000000000000600082015250565b600061209c6014836117de565b91506120a782612066565b602082019050919050565b600060208201905081810360008301526120cb8161208f565b905091905056fea26469706673582212207d8d7b174371dbab984c6c89b4722525bbba0141d3629b885e387f19ab63eb9664736f6c63430008130033",
  "linkReferences": {},
  "deployedLinkReferences": {}
}