{
  "_format": "hh-sol-artifact-1",
  "contractName": "DefilordLendingPool",
  "sourceName": "contracts/DefilordLendingPool_Advanced.sol",
  "abi": [
    {
      "inputs": [
        {
          "internalType": "address",
          "name": "_usdt",
          "type": "address"
        }
      ],
      "stateMutability": "nonpayable",
      "type": "constructor"
    },
    {
      "anonymous": false,
      "inputs": [
        {
          "indexed": false,
          "internalType": "uint256",
          "name": "newAPY",
          "type": "uint256"
        }
      ],
      "name": "APYChanged",
      "type": "event"
    },
    {
      "anonymous": false,
      "inputs": [
        {
          "indexed": false,
          "internalType": "uint256",
          "name": "newCap",
          "type": "uint256"
        }
      ],
      "name": "CapUpdated",
      "type": "event"
    },
    {
      "anonymous": false,
      "inputs": [
        {
          "indexed": true,
          "internalType": "address",
          "name": "user",
          "type": "address"
        },
        {
          "indexed": false,
          "internalType": "uint256",
          "name": "amount",
          "type": "uint256"
        }
      ],
      "name": "Deposited",
      "type": "event"
    },
    {
      "anonymous": false,
      "inputs": [
        {
          "indexed": true,
          "internalType": "address",
          "name": "previousOwner",
          "type": "address"
        },
        {
          "indexed": true,
          "internalType": "address",
          "name": "newOwner",
          "type": "address"
        }
      ],
      "name": "OwnershipTransferred",
      "type": "event"
    },
    {
      "anonymous": false,
      "inputs": [
        {
          "indexed": false,
          "internalType": "address",
          "name": "account",
          "type": "address"
        }
      ],
      "name": "Paused",
      "type": "event"
    },
    {
      "anonymous": false,
      "inputs": [
        {
          "indexed": false,
          "internalType": "address",
          "name": "account",
          "type": "address"
        }
      ],
      "name": "Unpaused",
      "type": "event"
    },
    {
      "anonymous": false,
      "inputs": [
        {
          "indexed": true,
          "internalType": "address",
          "name": "user",
          "type": "address"
        },
        {
          "indexed": false,
          "internalType": "uint256",
          "name": "amount",
          "type": "uint256"
        },
        {
          "indexed": false,
          "internalType": "uint256",
          "name": "interest",
          "type": "uint256"
        }
      ],
      "name": "Withdrawn",
      "type": "event"
    },
    {
      "inputs": [],
      "name": "MAX_APY",
      "outputs": [
        {
          "internalType": "uint256",
          "name": "",
          "type": "uint256"
        }
      ],
      "stateMutability": "view",
      "type": "function"
    },
    {
      "inputs": [],
      "name": "MAX_USER_DEPOSIT",
      "outputs": [
        {
          "internalType": "uint256",
          "name": "",
          "type": "uint256"
        }
      ],
      "stateMutability": "view",
      "type": "function"
    },
    {
      "inputs": [],
      "name": "MIN_LOCKUP_DURATION",
      "outputs": [
        {
          "internalType": "uint256",
          "name": "",
          "type": "uint256"
        }
      ],
      "stateMutability": "view",
      "type": "function"
    },
    {
      "inputs": [
        {
          "internalType": "uint256",
          "name": "amount",
          "type": "uint256"
        }
      ],
      "name": "deposit",
      "outputs": [],
      "stateMutability": "nonpayable",
      "type": "function"
    },
    {
      "inputs": [],
      "name": "depositCap",
      "outputs": [
        {
          "internalType": "uint256",
          "name": "",
          "type": "uint256"
        }
      ],
      "stateMutability": "view",
      "type": "function"
    },
    {
      "inputs": [
        {
          "internalType": "address",
          "name": "",
          "type": "address"
        },
        {
          "internalType": "uint256",
          "name": "",
          "type": "uint256"
        }
      ],
      "name": "deposits",
      "outputs": [
        {
          "internalType": "uint256",
          "name": "amount",
          "type": "uint256"
        },
        {
          "internalType": "uint256",
          "name": "depositTime",
          "type": "uint256"
        }
      ],
      "stateMutability": "view",
      "type": "function"
    },
    {
      "inputs": [],
      "name": "fixedAPY",
      "outputs": [
        {
          "internalType": "uint256",
          "name": "",
          "type": "uint256"
        }
      ],
      "stateMutability": "view",
      "type": "function"
    },
    {
      "inputs": [
        {
          "internalType": "address",
          "name": "user",
          "type": "address"
        }
      ],
      "name": "getUserDeposits",
      "outputs": [
        {
          "components": [
            {
              "internalType": "uint256",
              "name": "amount",
              "type": "uint256"
            },
            {
              "internalType": "uint256",
              "name": "depositTime",
              "type": "uint256"
            }
          ],
          "internalType": "struct DefilordLendingPool.DepositInfo[]",
          "name": "",
          "type": "tuple[]"
        }
      ],
      "stateMutability": "view",
      "type": "function"
    },
    {
      "inputs": [
        {
          "internalType": "address",
          "name": "user",
          "type": "address"
        }
      ],
      "name": "getUserTotalBalance",
      "outputs": [
        {
          "internalType": "uint256",
          "name": "principal",
          "type": "uint256"
        },
        {
          "internalType": "uint256",
          "name": "interest",
          "type": "uint256"
        }
      ],
      "stateMutability": "view",
      "type": "function"
    },
    {
      "inputs": [],
      "name": "owner",
      "outputs": [
        {
          "internalType": "address",
          "name": "",
          "type": "address"
        }
      ],
      "stateMutability": "view",
      "type": "function"
    },
    {
      "inputs": [],
      "name": "pause",
      "outputs": [],
      "stateMutability": "nonpayable",
      "type": "function"
    },
    {
      "inputs": [],
      "name": "paused",
      "outputs": [
        {
          "internalType": "bool",
          "name": "",
          "type": "bool"
        }
      ],
      "stateMutability": "view",
      "type": "function"
    },
    {
      "inputs": [],
      "name": "renounceOwnership",
      "outputs": [],
      "stateMutability": "nonpayable",
      "type": "function"
    },
    {
      "inputs": [
        {
          "internalType": "uint256",
          "name": "_apy",
          "type": "uint256"
        }
      ],
      "name": "setAPY",
      "outputs": [],
      "stateMutability": "nonpayable",
      "type": "function"
    },
    {
      "inputs": [
        {
          "internalType": "uint256",
          "name": "_cap",
          "type": "uint256"
        }
      ],
      "name": "setDepositCap",
      "outputs": [],
      "stateMutability": "nonpayable",
      "type": "function"
    },
    {
      "inputs": [],
      "name": "totalDeposits",
      "outputs": [
        {
          "internalType": "uint256",
          "name": "",
          "type": "uint256"
        }
      ],
      "stateMutability": "view",
      "type": "function"
    },
    {
      "inputs": [
        {
          "internalType": "address",
          "name": "newOwner",
          "type": "address"
        }
      ],
      "name": "transferOwnership",
      "outputs": [],
      "stateMutability": "nonpayable",
      "type": "function"
    },
    {
      "inputs": [],
      "name": "unpause",
      "outputs": [],
      "stateMutability": "nonpayable",
      "type": "function"
    },
    {
      "inputs": [],
      "name": "usdt",
      "outputs": [
        {
          "internalType": "contract IERC20",
          "name": "",
          "type": "address"
        }
      ],
      "stateMutability": "view",
      "type": "function"
    },
    {
      "inputs": [
        {
          "internalType": "address",
          "name": "",
          "type": "address"
        }
      ],
      "name": "userTotalDeposited",
      "outputs": [
        {
          "internalType": "uint256",
          "name": "",
          "type": "uint256"
        }
      ],
      "stateMutability": "view",
      "type": "function"
    },
    {
      "inputs": [],
      "name": "withdrawAll",
      "outputs": [],
      "stateMutability": "nonpayable",
      "type": "function"
    }
  ],
  "bytecode": "0x60a06040526101f460025564e8d4a510006004553480156200002057600080fd5b50604051620021913803806200219183398181016040528101906200004691906200026b565b60016000819055506000600160006101000a81548160ff021916908315150217905550620000896200007d6200013660201b60201c565b6200013e60201b60201c565b600073ffffffffffffffffffffffffffffffffffffffff168173ffffffffffffffffffffffffffffffffffffffff1603620000fb576040517f08c379a0000000000000000000000000000000000000000000000000000000008152600401620000f290620002fe565b60405180910390fd5b8073ffffffffffffffffffffffffffffffffffffffff1660808173ffffffffffffffffffffffffffffffffffffffff16815250505062000320565b600033905090565b600060018054906101000a900473ffffffffffffffffffffffffffffffffffffffff169050816001806101000a81548173ffffffffffffffffffffffffffffffffffffffff021916908373ffffffffffffffffffffffffffffffffffffffff1602179055508173ffffffffffffffffffffffffffffffffffffffff168173ffffffffffffffffffffffffffffffffffffffff167f8be0079c531659141344cd1fd0a4f28419497f9722a3daafe3b4186f6b6457e060405160405180910390a35050565b600080fd5b600073ffffffffffffffffffffffffffffffffffffffff82169050919050565b6000620002338262000206565b9050919050565b620002458162000226565b81146200025157600080fd5b50565b60008151905062000265816200023a565b92915050565b60006020828403121562000284576200028362000201565b5b6000620002948482850162000254565b91505092915050565b600082825260208201905092915050565b7f496e76616c696420555344542061646472657373000000000000000000000000600082015250565b6000620002e66014836200029d565b9150620002f382620002ae565b602082019050919050565b600060208201905081810360008301526200031981620002d7565b9050919050565b608051611e476200034a600039600081816104e6015281816108d50152610bda0152611e476000f3fe608060405234801561001057600080fd5b50600436106101375760003560e01c80637d882097116100b8578063aa80e8a21161007c578063aa80e8a2146102cf578063b6b55f25146102ff578063d4b6bfc01461031b578063d6d6817714610339578063dbd5edc71461036a578063f2fde38b1461038857610137565b80637d882097146102635780638456cb5914610281578063853828b61461028b57806386651203146102955780638da5cb5b146102b157610137565b806348c9eaaf116100ff57806348c9eaaf146101ce5780635c975abb146101ec57806368e975131461020a578063715018a6146102285780637923076c1461023257610137565b806324f45e671461013c5780632a5bf6d2146101585780632f48ab7d146101885780633d92f4e2146101a65780633f4ba83a146101c4575b600080fd5b610156600480360381019061015191906112c1565b6103a4565b005b610172600480360381019061016d919061134c565b610432565b60405161017f9190611466565b60405180910390f35b6101906104e4565b60405161019d91906114e7565b60405180910390f35b6101ae610508565b6040516101bb9190611511565b60405180910390f35b6101cc61050e565b005b6101d6610520565b6040516101e39190611511565b60405180910390f35b6101f4610526565b6040516102019190611547565b60405180910390f35b61021261053d565b60405161021f9190611511565b60405180910390f35b610230610544565b005b61024c6004803603810190610247919061134c565b610558565b60405161025a929190611562565b60405180910390f35b61026b61068a565b6040516102789190611511565b60405180910390f35b610289610690565b005b6102936106a2565b005b6102af60048036038101906102aa91906112c1565b610a18565b005b6102b9610a61565b6040516102c6919061159a565b60405180910390f35b6102e960048036038101906102e4919061134c565b610a89565b6040516102f69190611511565b60405180910390f35b610319600480360381019061031491906112c1565b610aa1565b005b610323610e12565b6040516103309190611511565b60405180910390f35b610353600480360381019061034e91906115b5565b610e1b565b604051610361929190611562565b60405180910390f35b610372610e5c565b60405161037f9190611511565b60405180910390f35b6103a2600480360381019061039d919061134c565b610e62565b005b6103ac610ee5565b6107d08111156103f1576040517f08c379a00000000000000000000000000000000000000000000000000000000081526004016103e890611652565b60405180910390fd5b806002819055507ffe0dc6926c703f5cea6a6a7bee3d6bede2f43f0df28a572f2e5cdd1d7ba9e560816040516104279190611511565b60405180910390a150565b6060600560008373ffffffffffffffffffffffffffffffffffffffff1673ffffffffffffffffffffffffffffffffffffffff168152602001908152602001600020805480602002602001604051908101604052809291908181526020016000905b828210156104d957838290600052602060002090600202016040518060400160405290816000820154815260200160018201548152505081526020019060010190610493565b505050509050919050565b7f000000000000000000000000000000000000000000000000000000000000000081565b6107d081565b610516610ee5565b61051e610f63565b565b60025481565b6000600160009054906101000a900460ff16905090565b62093a8081565b61054c610ee5565b6105566000610fc6565b565b6000806000600560008573ffffffffffffffffffffffffffffffffffffffff1673ffffffffffffffffffffffffffffffffffffffff168152602001908152602001600020805480602002602001604051908101604052809291908181526020016000905b82821015610602578382906000526020600020906002020160405180604001604052908160008201548152602001600182015481525050815260200190600101906105bc565b50505050905060005b81518110156106835781818151811061062757610626611672565b5b6020026020010151600001518461063e91906116d0565b935061066382828151811061065657610655611672565b5b6020026020010151611089565b8361066e91906116d0565b9250808061067b90611704565b91505061060b565b5050915091565b60035481565b610698610ee5565b6106a06110e5565b565b6106aa611147565b6106b2611191565b6000600560003373ffffffffffffffffffffffffffffffffffffffff1673ffffffffffffffffffffffffffffffffffffffff1681526020019081526020016000209050600081805490501161073c576040517f08c379a000000000000000000000000000000000000000000000000000000000815260040161073390611798565b60405180910390fd5b60008060005b838054905081101561082957600084828154811061076357610762611672565b5b906000526020600020906002020160405180604001604052908160008201548152602001600182015481525050905062093a8081602001516107a591906116d0565b4210156107e7576040517f08c379a00000000000000000000000000000000000000000000000000000000081526004016107de90611804565b60405180910390fd5b60006107f282611089565b905081600001518561080491906116d0565b9450808461081291906116d0565b93505050808061082190611704565b915050610742565b50600560003373ffffffffffffffffffffffffffffffffffffffff1673ffffffffffffffffffffffffffffffffffffffff1681526020019081526020016000206000610875919061123b565b81600360008282546108879190611824565b925050819055506000600660003373ffffffffffffffffffffffffffffffffffffffff1673ffffffffffffffffffffffffffffffffffffffff168152602001908152602001600020819055507f000000000000000000000000000000000000000000000000000000000000000073ffffffffffffffffffffffffffffffffffffffff1663a9059cbb33838561091c91906116d0565b6040518363ffffffff1660e01b8152600401610939929190611858565b6020604051808303816000875af1158015610958573d6000803e3d6000fd5b505050506040513d601f19601f8201168201806040525081019061097c91906118ad565b6109bb576040517f08c379a00000000000000000000000000000000000000000000000000000000081526004016109b290611926565b60405180910390fd5b3373ffffffffffffffffffffffffffffffffffffffff167f92ccf450a286a957af52509bc1c9939d1a6a481783e142e41e2499f0bb66ebc68383604051610a03929190611562565b60405180910390a2505050610a166111e0565b565b610a20610ee5565b806004819055507f3c8eb7c49d332f4c1e4d92a27cda93c31cc9452f7a408e0c6109fcddbc9946ea81604051610a569190611511565b60405180910390a150565b600060018054906101000a900473ffffffffffffffffffffffffffffffffffffffff16905090565b60066020528060005260406000206000915090505481565b610aa9611147565b610ab1611191565b60008111610af4576040517f08c379a0000000000000000000000000000000000000000000000000000000008152600401610aeb90611992565b60405180910390fd5b60045481600354610b0591906116d0565b1115610b46576040517f08c379a0000000000000000000000000000000000000000000000000000000008152600401610b3d906119fe565b60405180910390fd5b64174876e80081600660003373ffffffffffffffffffffffffffffffffffffffff1673ffffffffffffffffffffffffffffffffffffffff16815260200190815260200160002054610b9791906116d0565b1115610bd8576040517f08c379a0000000000000000000000000000000000000000000000000000000008152600401610bcf90611a6a565b60405180910390fd5b7f000000000000000000000000000000000000000000000000000000000000000073ffffffffffffffffffffffffffffffffffffffff166323b872dd3330846040518463ffffffff1660e01b8152600401610c3593929190611a8a565b6020604051808303816000875af1158015610c54573d6000803e3d6000fd5b505050506040513d601f19601f82011682018060405250810190610c7891906118ad565b610cb7576040517f08c379a0000000000000000000000000000000000000000000000000000000008152600401610cae90611b0d565b60405180910390fd5b600560003373ffffffffffffffffffffffffffffffffffffffff1673ffffffffffffffffffffffffffffffffffffffff16815260200190815260200160002060405180604001604052808381526020014281525090806001815401808255809150506001900390600052602060002090600202016000909190919091506000820151816000015560208201518160010155505080600660003373ffffffffffffffffffffffffffffffffffffffff1673ffffffffffffffffffffffffffffffffffffffff1681526020019081526020016000206000828254610d9991906116d0565b925050819055508060036000828254610db291906116d0565b925050819055503373ffffffffffffffffffffffffffffffffffffffff167f2da466a7b24304f47e87fa2e1e5a81b9831ce54fec19055ce277ca2f39ba42c482604051610dff9190611511565b60405180910390a2610e0f6111e0565b50565b64174876e80081565b60056020528160005260406000208181548110610e3757600080fd5b9060005260206000209060020201600091509150508060000154908060010154905082565b60045481565b610e6a610ee5565b600073ffffffffffffffffffffffffffffffffffffffff168173ffffffffffffffffffffffffffffffffffffffff1603610ed9576040517f08c379a0000000000000000000000000000000000000000000000000000000008152600401610ed090611b9f565b60405180910390fd5b610ee281610fc6565b50565b610eed6111ea565b73ffffffffffffffffffffffffffffffffffffffff16610f0b610a61565b73ffffffffffffffffffffffffffffffffffffffff1614610f61576040517f08c379a0000000000000000000000000000000000000000000000000000000008152600401610f5890611c0b565b60405180910390fd5b565b610f6b6111f2565b6000600160006101000a81548160ff0219169083151502179055507f5db9ee0a495bf2e6ff9c91a7834c1ba4fdd244a5e8aa4e537bd38aeae4b073aa610faf6111ea565b604051610fbc919061159a565b60405180910390a1565b600060018054906101000a900473ffffffffffffffffffffffffffffffffffffffff169050816001806101000a81548173ffffffffffffffffffffffffffffffffffffffff021916908373ffffffffffffffffffffffffffffffffffffffff1602179055508173ffffffffffffffffffffffffffffffffffffffff168173ffffffffffffffffffffffffffffffffffffffff167f8be0079c531659141344cd1fd0a4f28419497f9722a3daafe3b4186f6b6457e060405160405180910390a35050565b60008082602001514261109c9190611824565b9050600061271060025485600001516110b59190611c2b565b6110bf9190611c9c565b90506301e1338082826110d29190611c2b565b6110dc9190611c9c565b92505050919050565b6110ed611147565b60018060006101000a81548160ff0219169083151502179055507f62e78cea01bee320cd4e420270b5ea74000d11b0c9f74754ebdbfc544b05a2586111306111ea565b60405161113d919061159a565b60405180910390a1565b61114f610526565b1561118f576040517f08c379a000000000000000000000000000000000000000000000000000000000815260040161118690611d19565b60405180910390fd5b565b6002600054036111d6576040517f08c379a00000000000000000000000000000000000000000000000000000000081526004016111cd90611d85565b60405180910390fd5b6002600081905550565b6001600081905550565b600033905090565b6111fa610526565b611239576040517f08c379a000000000000000000000000000000000000000000000000000000000815260040161123090611df1565b60405180910390fd5b565b508054600082556002029060005260206000209081019061125c919061125f565b50565b5b8082111561128257600080820160009055600182016000905550600201611260565b5090565b600080fd5b6000819050919050565b61129e8161128b565b81146112a957600080fd5b50565b6000813590506112bb81611295565b92915050565b6000602082840312156112d7576112d6611286565b5b60006112e5848285016112ac565b91505092915050565b600073ffffffffffffffffffffffffffffffffffffffff82169050919050565b6000611319826112ee565b9050919050565b6113298161130e565b811461133457600080fd5b50565b60008135905061134681611320565b92915050565b60006020828403121561136257611361611286565b5b600061137084828501611337565b91505092915050565b600081519050919050565b600082825260208201905092915050565b6000819050602082019050919050565b6113ae8161128b565b82525050565b6040820160008201516113ca60008501826113a5565b5060208201516113dd60208501826113a5565b50505050565b60006113ef83836113b4565b60408301905092915050565b6000602082019050919050565b600061141382611379565b61141d8185611384565b935061142883611395565b8060005b8381101561145957815161144088826113e3565b975061144b836113fb565b92505060018101905061142c565b5085935050505092915050565b600060208201905081810360008301526114808184611408565b905092915050565b6000819050919050565b60006114ad6114a86114a3846112ee565b611488565b6112ee565b9050919050565b60006114bf82611492565b9050919050565b60006114d1826114b4565b9050919050565b6114e1816114c6565b82525050565b60006020820190506114fc60008301846114d8565b92915050565b61150b8161128b565b82525050565b60006020820190506115266000830184611502565b92915050565b60008115159050919050565b6115418161152c565b82525050565b600060208201905061155c6000830184611538565b92915050565b60006040820190506115776000830185611502565b6115846020830184611502565b9392505050565b6115948161130e565b82525050565b60006020820190506115af600083018461158b565b92915050565b600080604083850312156115cc576115cb611286565b5b60006115da85828601611337565b92505060206115eb858286016112ac565b9150509250929050565b600082825260208201905092915050565b7f41505920746f6f20686967680000000000000000000000000000000000000000600082015250565b600061163c600c836115f5565b915061164782611606565b602082019050919050565b6000602082019050818103600083015261166b8161162f565b9050919050565b7f4e487b7100000000000000000000000000000000000000000000000000000000600052603260045260246000fd5b7f4e487b7100000000000000000000000000000000000000000000000000000000600052601160045260246000fd5b60006116db8261128b565b91506116e68361128b565b92508282019050808211156116fe576116fd6116a1565b5b92915050565b600061170f8261128b565b91507fffffffffffffffffffffffffffffffffffffffffffffffffffffffffffffffff8203611741576117406116a1565b5b600182019050919050565b7f4e6f206465706f73697473000000000000000000000000000000000000000000600082015250565b6000611782600b836115f5565b915061178d8261174c565b602082019050919050565b600060208201905081810360008301526117b181611775565b9050919050565b7f4c6f636b65640000000000000000000000000000000000000000000000000000600082015250565b60006117ee6006836115f5565b91506117f9826117b8565b602082019050919050565b6000602082019050818103600083015261181d816117e1565b9050919050565b600061182f8261128b565b915061183a8361128b565b9250828203905081811115611852576118516116a1565b5b92915050565b600060408201905061186d600083018561158b565b61187a6020830184611502565b9392505050565b61188a8161152c565b811461189557600080fd5b50565b6000815190506118a781611881565b92915050565b6000602082840312156118c3576118c2611286565b5b60006118d184828501611898565b91505092915050565b7f5769746864726177206661696c65640000000000000000000000000000000000600082015250565b6000611910600f836115f5565b915061191b826118da565b602082019050919050565b6000602082019050818103600083015261193f81611903565b9050919050565b7f5a65726f206465706f7369740000000000000000000000000000000000000000600082015250565b600061197c600c836115f5565b915061198782611946565b602082019050919050565b600060208201905081810360008301526119ab8161196f565b9050919050565b7f506f6f6c20636170207265616368656400000000000000000000000000000000600082015250565b60006119e86010836115f5565b91506119f3826119b2565b602082019050919050565b60006020820190508181036000830152611a17816119db565b9050919050565b7f5573657220636170206578636565646564000000000000000000000000000000600082015250565b6000611a546011836115f5565b9150611a5f82611a1e565b602082019050919050565b60006020820190508181036000830152611a8381611a47565b9050919050565b6000606082019050611a9f600083018661158b565b611aac602083018561158b565b611ab96040830184611502565b949350505050565b7f5472616e73666572206661696c65640000000000000000000000000000000000600082015250565b6000611af7600f836115f5565b9150611b0282611ac1565b602082019050919050565b60006020820190508181036000830152611b2681611aea565b9050919050565b7f4f776e61626c653a206e6577206f776e657220697320746865207a65726f206160008201527f6464726573730000000000000000000000000000000000000000000000000000602082015250565b6000611b896026836115f5565b9150611b9482611b2d565b604082019050919050565b60006020820190508181036000830152611bb881611b7c565b9050919050565b7f4f776e61626c653a2063616c6c6572206973206e6f7420746865206f776e6572600082015250565b6000611bf56020836115f5565b9150611c0082611bbf565b602082019050919050565b60006020820190508181036000830152611c2481611be8565b9050919050565b6000611c368261128b565b9150611c418361128b565b9250828202611c4f8161128b565b91508282048414831517611c6657611c656116a1565b5b5092915050565b7f4e487b7100000000000000000000000000000000000000000000000000000000600052601260045260246000fd5b6000611ca78261128b565b9150611cb28361128b565b925082611cc257611cc1611c6d565b5b828204905092915050565b7f5061757361626c653a2070617573656400000000000000000000000000000000600082015250565b6000611d036010836115f5565b9150611d0e82611ccd565b602082019050919050565b60006020820190508181036000830152611d3281611cf6565b9050919050565b7f5265656e7472616e637947756172643a207265656e7472616e742063616c6c00600082015250565b6000611d6f601f836115f5565b9150611d7a82611d39565b602082019050919050565b60006020820190508181036000830152611d9e81611d62565b9050919050565b7f5061757361626c653a206e6f7420706175736564000000000000000000000000600082015250565b6000611ddb6014836115f5565b9150611de682611da5565b602082019050919050565b60006020820190508181036000830152611e0a81611dce565b905091905056fea26469706673582212202a14116342fb350fe72bbdff0859b174c3f13204dd7d976c63894b38ed8095d664736f6c63430008130033",
  "linkReferences": {},
  "deployedLinkReferences": {}
}