{
  "_format": "hh-sol-artifact-1",
  "contractName": "LendingPoolCore",
  "sourceName": "contracts/LendingPoolCore.sol",
  "abi": [
    {
      "inputs": [
        {
          "internalType": "address",
          "name": "_usdt",
          "type": "address"
        },
        {
          "internalType": "address",
          "name": "_vaultManager",
          "type": "address"
        }
      ],
      "stateMutability": "nonpayable",
      "type": "constructor"
    },
    {
      "anonymous": false,
      "inputs": [
        {
          "indexed": true,
          "internalType": "address",
          "name": "user",
          "type": "address"
        },
        {
          "indexed": false,
          "internalType": "uint256",
          "name": "amount",
          "type": "uint256"
        }
      ],
      "name": "Deposited",
      "type": "event"
    },
    {
      "anonymous": false,
      "inputs": [
        {
          "indexed": true,
          "internalType": "address",
          "name": "previousOwner",
          "type": "address"
        },
        {
          "indexed": true,
          "internalType": "address",
          "name": "newOwner",
          "type": "address"
        }
      ],
      "name": "OwnershipTransferred",
      "type": "event"
    },
    {
      "anonymous": false,
      "inputs": [
        {
          "indexed": true,
          "internalType": "address",
          "name": "vault",
          "type": "address"
        },
        {
          "indexed": false,
          "internalType": "uint256",
          "name": "amount",
          "type": "uint256"
        }
      ],
      "name": "VaultRequested",
      "type": "event"
    },
    {
      "anonymous": false,
      "inputs": [
        {
          "indexed": true,
          "internalType": "address",
          "name": "user",
          "type": "address"
        },
        {
          "indexed": false,
          "internalType": "uint256",
          "name": "amount",
          "type": "uint256"
        }
      ],
      "name": "Withdrawn",
      "type": "event"
    },
    {
      "inputs": [],
      "name": "RESERVE_RATIO",
      "outputs": [
        {
          "internalType": "uint256",
          "name": "",
          "type": "uint256"
        }
      ],
      "stateMutability": "view",
      "type": "function"
    },
    {
      "inputs": [],
      "name": "availableForVault",
      "outputs": [
        {
          "internalType": "uint256",
          "name": "",
          "type": "uint256"
        }
      ],
      "stateMutability": "view",
      "type": "function"
    },
    {
      "inputs": [
        {
          "internalType": "uint256",
          "name": "amount",
          "type": "uint256"
        }
      ],
      "name": "deposit",
      "outputs": [],
      "stateMutability": "nonpayable",
      "type": "function"
    },
    {
      "inputs": [
        {
          "internalType": "address",
          "name": "",
          "type": "address"
        },
        {
          "internalType": "uint256",
          "name": "",
          "type": "uint256"
        }
      ],
      "name": "deposits",
      "outputs": [
        {
          "internalType": "uint256",
          "name": "amount",
          "type": "uint256"
        },
        {
          "internalType": "uint256",
          "name": "timestamp",
          "type": "uint256"
        }
      ],
      "stateMutability": "view",
      "type": "function"
    },
    {
      "inputs": [
        {
          "internalType": "address",
          "name": "user",
          "type": "address"
        }
      ],
      "name": "getUserTotalBalance",
      "outputs": [
        {
          "internalType": "uint256",
          "name": "principal",
          "type": "uint256"
        },
        {
          "internalType": "uint256",
          "name": "interest",
          "type": "uint256"
        }
      ],
      "stateMutability": "view",
      "type": "function"
    },
    {
      "inputs": [],
      "name": "owner",
      "outputs": [
        {
          "internalType": "address",
          "name": "",
          "type": "address"
        }
      ],
      "stateMutability": "view",
      "type": "function"
    },
    {
      "inputs": [],
      "name": "renounceOwnership",
      "outputs": [],
      "stateMutability": "nonpayable",
      "type": "function"
    },
    {
      "inputs": [
        {
          "internalType": "address",
          "name": "vault",
          "type": "address"
        },
        {
          "internalType": "uint256",
          "name": "amount",
          "type": "uint256"
        }
      ],
      "name": "requestVaultAllocation",
      "outputs": [],
      "stateMutability": "nonpayable",
      "type": "function"
    },
    {
      "inputs": [],
      "name": "totalDeposits",
      "outputs": [
        {
          "internalType": "uint256",
          "name": "",
          "type": "uint256"
        }
      ],
      "stateMutability": "view",
      "type": "function"
    },
    {
      "inputs": [
        {
          "internalType": "address",
          "name": "newOwner",
          "type": "address"
        }
      ],
      "name": "transferOwnership",
      "outputs": [],
      "stateMutability": "nonpayable",
      "type": "function"
    },
    {
      "inputs": [],
      "name": "usdt",
      "outputs": [
        {
          "internalType": "contract IERC20",
          "name": "",
          "type": "address"
        }
      ],
      "stateMutability": "view",
      "type": "function"
    },
    {
      "inputs": [],
      "name": "vaultManager",
      "outputs": [
        {
          "internalType": "contract IVaultManager",
          "name": "",
          "type": "address"
        }
      ],
      "stateMutability": "view",
      "type": "function"
    },
    {
      "inputs": [],
      "name": "withdrawAll",
      "outputs": [],
      "stateMutability": "nonpayable",
      "type": "function"
    }
  ],
  "bytecode": "0x60a06040523480156200001157600080fd5b50604051620017b9380380620017b983398181016040528101906200003791906200020a565b620000576200004b620000d460201b60201c565b620000dc60201b60201c565b8173ffffffffffffffffffffffffffffffffffffffff1660808173ffffffffffffffffffffffffffffffffffffffff168152505080600160006101000a81548173ffffffffffffffffffffffffffffffffffffffff021916908373ffffffffffffffffffffffffffffffffffffffff160217905550505062000251565b600033905090565b60008060009054906101000a900473ffffffffffffffffffffffffffffffffffffffff169050816000806101000a81548173ffffffffffffffffffffffffffffffffffffffff021916908373ffffffffffffffffffffffffffffffffffffffff1602179055508173ffffffffffffffffffffffffffffffffffffffff168173ffffffffffffffffffffffffffffffffffffffff167f8be0079c531659141344cd1fd0a4f28419497f9722a3daafe3b4186f6b6457e060405160405180910390a35050565b600080fd5b600073ffffffffffffffffffffffffffffffffffffffff82169050919050565b6000620001d282620001a5565b9050919050565b620001e481620001c5565b8114620001f057600080fd5b50565b6000815190506200020481620001d9565b92915050565b60008060408385031215620002245762000223620001a0565b5b60006200023485828601620001f3565b92505060206200024785828601620001f3565b9150509250929050565b6080516115376200028260003960008181610254015281816104e0015281816106cf01526108fd01526115376000f3fe608060405234801561001057600080fd5b50600436106100cf5760003560e01c80638a4adf241161008c578063cd0ef6b811610066578063cd0ef6b8146101cb578063d6d68177146101e7578063e37dbfd914610218578063f2fde38b14610236576100cf565b80638a4adf24146101735780638da5cb5b14610191578063b6b55f25146101af576100cf565b80632f48ab7d146100d4578063715018a6146100f25780637923076c146100fc5780637d8820971461012d578063853828b61461014b578063876e9b9d14610155575b600080fd5b6100dc610252565b6040516100e99190610d7a565b60405180910390f35b6100fa610276565b005b61011660048036038101906101119190610dd8565b61028a565b604051610124929190610e1e565b60405180910390f35b610135610390565b6040516101429190610e47565b60405180910390f35b610153610396565b005b61015d61060d565b60405161016a9190610e47565b60405180910390f35b61017b61063b565b6040516101889190610e83565b60405180910390f35b610199610661565b6040516101a69190610ead565b60405180910390f35b6101c960048036038101906101c49190610ef4565b61068a565b005b6101e560048036038101906101e09190610f21565b6108a9565b005b61020160048036038101906101fc9190610f21565b610a9d565b60405161020f929190610e1e565b60405180910390f35b610220610ade565b60405161022d9190610e47565b60405180910390f35b610250600480360381019061024b9190610dd8565b610ae3565b005b7f000000000000000000000000000000000000000000000000000000000000000081565b61027e610b66565b6102886000610be4565b565b6000806000600360008573ffffffffffffffffffffffffffffffffffffffff1673ffffffffffffffffffffffffffffffffffffffff168152602001908152602001600020805480602002602001604051908101604052809291908181526020016000905b82821015610334578382906000526020600020906002020160405180604001604052908160008201548152602001600182015481525050815260200190600101906102ee565b50505050905060005b81518110156103855781818151811061035957610358610f61565b5b602002602001015160000151846103709190610fbf565b9350808061037d90610ff3565b91505061033d565b506000915050915091565b60025481565b6000600360003373ffffffffffffffffffffffffffffffffffffffff1673ffffffffffffffffffffffffffffffffffffffff16815260200190815260200160002090506000818054905011610420576040517f08c379a000000000000000000000000000000000000000000000000000000000815260040161041790611098565b60405180910390fd5b600080600090505b82805490508110156104795782818154811061044757610446610f61565b5b906000526020600020906002020160000154826104649190610fbf565b9150808061047190610ff3565b915050610428565b50600360003373ffffffffffffffffffffffffffffffffffffffff1673ffffffffffffffffffffffffffffffffffffffff16815260200190815260200160002060006104c59190610cb0565b80600260008282546104d791906110b8565b925050819055507f000000000000000000000000000000000000000000000000000000000000000073ffffffffffffffffffffffffffffffffffffffff1663a9059cbb33836040518363ffffffff1660e01b81526004016105399291906110ec565b6020604051808303816000875af1158015610558573d6000803e3d6000fd5b505050506040513d601f19601f8201168201806040525081019061057c919061114d565b6105bb576040517f08c379a00000000000000000000000000000000000000000000000000000000081526004016105b2906111c6565b60405180910390fd5b3373ffffffffffffffffffffffffffffffffffffffff167f7084f5476618d8e60b11ef0d7d3f06914655adb8793e28ff7f018d4c76d505d5826040516106019190610e47565b60405180910390a25050565b60006064601e606461061f91906110b8565b60025461062c91906111e6565b6106369190611257565b905090565b600160009054906101000a900473ffffffffffffffffffffffffffffffffffffffff1681565b60008060009054906101000a900473ffffffffffffffffffffffffffffffffffffffff16905090565b600081116106cd576040517f08c379a00000000000000000000000000000000000000000000000000000000081526004016106c4906112d4565b60405180910390fd5b7f000000000000000000000000000000000000000000000000000000000000000073ffffffffffffffffffffffffffffffffffffffff166323b872dd3330846040518463ffffffff1660e01b815260040161072a939291906112f4565b6020604051808303816000875af1158015610749573d6000803e3d6000fd5b505050506040513d601f19601f8201168201806040525081019061076d919061114d565b6107ac576040517f08c379a00000000000000000000000000000000000000000000000000000000081526004016107a390611377565b60405180910390fd5b600360003373ffffffffffffffffffffffffffffffffffffffff1673ffffffffffffffffffffffffffffffffffffffff16815260200190815260200160002060405180604001604052808381526020014281525090806001815401808255809150506001900390600052602060002090600202016000909190919091506000820151816000015560208201518160010155505080600260008282546108519190610fbf565b925050819055503373ffffffffffffffffffffffffffffffffffffffff167f2da466a7b24304f47e87fa2e1e5a81b9831ce54fec19055ce277ca2f39ba42c48260405161089e9190610e47565b60405180910390a250565b6108b1610b66565b6108b961060d565b8111156108fb576040517f08c379a00000000000000000000000000000000000000000000000000000000081526004016108f2906113e3565b60405180910390fd5b7f000000000000000000000000000000000000000000000000000000000000000073ffffffffffffffffffffffffffffffffffffffff1663095ea7b3600160009054906101000a900473ffffffffffffffffffffffffffffffffffffffff16836040518363ffffffff1660e01b81526004016109789291906110ec565b6020604051808303816000875af1158015610997573d6000803e3d6000fd5b505050506040513d601f19601f820116820180604052508101906109bb919061114d565b50600160009054906101000a900473ffffffffffffffffffffffffffffffffffffffff1673ffffffffffffffffffffffffffffffffffffffff16639558edf383836040518363ffffffff1660e01b8152600401610a199291906110ec565b600060405180830381600087803b158015610a3357600080fd5b505af1158015610a47573d6000803e3d6000fd5b505050508173ffffffffffffffffffffffffffffffffffffffff167f30e41344a8382325151df0ccfcdd4426cc6b4b180e888df660e37dc972d247ff82604051610a919190610e47565b60405180910390a25050565b60036020528160005260406000208181548110610ab957600080fd5b9060005260206000209060020201600091509150508060000154908060010154905082565b601e81565b610aeb610b66565b600073ffffffffffffffffffffffffffffffffffffffff168173ffffffffffffffffffffffffffffffffffffffff1603610b5a576040517f08c379a0000000000000000000000000000000000000000000000000000000008152600401610b5190611475565b60405180910390fd5b610b6381610be4565b50565b610b6e610ca8565b73ffffffffffffffffffffffffffffffffffffffff16610b8c610661565b73ffffffffffffffffffffffffffffffffffffffff1614610be2576040517f08c379a0000000000000000000000000000000000000000000000000000000008152600401610bd9906114e1565b60405180910390fd5b565b60008060009054906101000a900473ffffffffffffffffffffffffffffffffffffffff169050816000806101000a81548173ffffffffffffffffffffffffffffffffffffffff021916908373ffffffffffffffffffffffffffffffffffffffff1602179055508173ffffffffffffffffffffffffffffffffffffffff168173ffffffffffffffffffffffffffffffffffffffff167f8be0079c531659141344cd1fd0a4f28419497f9722a3daafe3b4186f6b6457e060405160405180910390a35050565b600033905090565b5080546000825560020290600052602060002090810190610cd19190610cd4565b50565b5b80821115610cf757600080820160009055600182016000905550600201610cd5565b5090565b600073ffffffffffffffffffffffffffffffffffffffff82169050919050565b6000819050919050565b6000610d40610d3b610d3684610cfb565b610d1b565b610cfb565b9050919050565b6000610d5282610d25565b9050919050565b6000610d6482610d47565b9050919050565b610d7481610d59565b82525050565b6000602082019050610d8f6000830184610d6b565b92915050565b600080fd5b6000610da582610cfb565b9050919050565b610db581610d9a565b8114610dc057600080fd5b50565b600081359050610dd281610dac565b92915050565b600060208284031215610dee57610ded610d95565b5b6000610dfc84828501610dc3565b91505092915050565b6000819050919050565b610e1881610e05565b82525050565b6000604082019050610e336000830185610e0f565b610e406020830184610e0f565b9392505050565b6000602082019050610e5c6000830184610e0f565b92915050565b6000610e6d82610d47565b9050919050565b610e7d81610e62565b82525050565b6000602082019050610e986000830184610e74565b92915050565b610ea781610d9a565b82525050565b6000602082019050610ec26000830184610e9e565b92915050565b610ed181610e05565b8114610edc57600080fd5b50565b600081359050610eee81610ec8565b92915050565b600060208284031215610f0a57610f09610d95565b5b6000610f1884828501610edf565b91505092915050565b60008060408385031215610f3857610f37610d95565b5b6000610f4685828601610dc3565b9250506020610f5785828601610edf565b9150509250929050565b7f4e487b7100000000000000000000000000000000000000000000000000000000600052603260045260246000fd5b7f4e487b7100000000000000000000000000000000000000000000000000000000600052601160045260246000fd5b6000610fca82610e05565b9150610fd583610e05565b9250828201905080821115610fed57610fec610f90565b5b92915050565b6000610ffe82610e05565b91507fffffffffffffffffffffffffffffffffffffffffffffffffffffffffffffffff82036110305761102f610f90565b5b600182019050919050565b600082825260208201905092915050565b7f4e6f7468696e6720746f20776974686472617700000000000000000000000000600082015250565b600061108260138361103b565b915061108d8261104c565b602082019050919050565b600060208201905081810360008301526110b181611075565b9050919050565b60006110c382610e05565b91506110ce83610e05565b92508282039050818111156110e6576110e5610f90565b5b92915050565b60006040820190506111016000830185610e9e565b61110e6020830184610e0f565b9392505050565b60008115159050919050565b61112a81611115565b811461113557600080fd5b50565b60008151905061114781611121565b92915050565b60006020828403121561116357611162610d95565b5b600061117184828501611138565b91505092915050565b7f5769746864726177206661696c65640000000000000000000000000000000000600082015250565b60006111b0600f8361103b565b91506111bb8261117a565b602082019050919050565b600060208201905081810360008301526111df816111a3565b9050919050565b60006111f182610e05565b91506111fc83610e05565b925082820261120a81610e05565b9150828204841483151761122157611220610f90565b5b5092915050565b7f4e487b7100000000000000000000000000000000000000000000000000000000600052601260045260246000fd5b600061126282610e05565b915061126d83610e05565b92508261127d5761127c611228565b5b828204905092915050565b7f5a65726f206465706f7369740000000000000000000000000000000000000000600082015250565b60006112be600c8361103b565b91506112c982611288565b602082019050919050565b600060208201905081810360008301526112ed816112b1565b9050919050565b60006060820190506113096000830186610e9e565b6113166020830185610e9e565b6113236040830184610e0f565b949350505050565b7f5472616e73666572206661696c65640000000000000000000000000000000000600082015250565b6000611361600f8361103b565b915061136c8261132b565b602082019050919050565b6000602082019050818103600083015261139081611354565b9050919050565b7f4e6f7420656e6f75676820726573657276650000000000000000000000000000600082015250565b60006113cd60128361103b565b91506113d882611397565b602082019050919050565b600060208201905081810360008301526113fc816113c0565b9050919050565b7f4f776e61626c653a206e6577206f776e657220697320746865207a65726f206160008201527f6464726573730000000000000000000000000000000000000000000000000000602082015250565b600061145f60268361103b565b915061146a82611403565b604082019050919050565b6000602082019050818103600083015261148e81611452565b9050919050565b7f4f776e61626c653a2063616c6c6572206973206e6f7420746865206f776e6572600082015250565b60006114cb60208361103b565b91506114d682611495565b602082019050919050565b600060208201905081810360008301526114fa816114be565b905091905056fea26469706673582212206833e12fd7d008d820ec011b92d48131841c238637b5586f7b326f93a6cfae5f64736f6c63430008130033",
  "linkReferences": {},
  "deployedLinkReferences": {}
}